:100000000C94EC020C9433030C9433030C943303E0
:100010000C9433030C9433030C9433030C94330388
:100020000C9433030C9433030C94661D0C94391E0A
:100030000C947B140C9433030C9433030C9433030F
:100040000C9433030C9433030C9433030C94330358
:100050000C9433030C94DC140C9433030C9433038E
:100060000C9433030C9433030C9433030C94330338
:100070000C9433030C9433030C9433030C94330328
:100080000C9433030C9433030C9433030C94330318
:100090000C9433030C9433030C9433030C94330308
:1000A0000C9433030C9433030C94330314000800B2
:1000B00015001C0018000C001200040016000900B6
:1000C0000A000B000D000E001D001B0006001900A9
:1000D0000500110010002E002E02130038022C0023
:1000E0005200500001000100010001000100010068
:1000F00001000100010001000100010001000100F8
:1001000001000100010001000100010001000100E7
:1001100001000100010001000100010001000100D7
:1001200001000100010001000100010001000100C7
:1004200001000100010001000100010012036B0046
:100430006500790062006F006100720064000000D6
:10044000160371006D006B006200750069006C009E
:1004500064006500720000000403090409026D00D5
:10046000040100A0FA0904000001030101000921B0
:10047000110100012240000705810308000A090458
:1004800001000103010200092111010001224D00B8
:100490000705820308000A090402000103000000A6
:1004A0000921110100012236000705830308000A13
:1004B00009040300010300000009211101000122C9
:1004C000390007058403200001120110010000001B
:1004D00008EDFE606001000102000105010906A1AE
:1004E00001050719E029E715002501950875018127
:1004F00002050819012905950575019102950175F7
:100500000391010507190029F71500250195F875D4
:10051000018102C005010980A101850216010026A2
:1005200003001A81002A8300751095018100C0051F
:100530000C0901A1018503160100269C021A010085
:100540002A9C02751095018100C005010902A101D4
:100550000901A100050919012905150025019505C5
:100560007501810295017503810105010930093189
:100570001581257F95027508810609381581257F2B
:10058000950175088106050C0A38021581257F95AD
:100590000175088106C0C005010906A101050719FA
:1005A000E029E7150025019508750181029501757F
:1005B0000881010508190129059505750191029524
:1005C00001750391010507190029FF150026FF0099
:1005D000950675088100C00011241FBECFEFDAE038
:1005E000DEBFCDBF04B603FE27C0809114029091F8
:1005F0001502A0911602B09117028730904BA740C8
:10060000B04BD1F4109214021092150210921602FF
:100610001092170214BE84B7877F84BF0FB6F89478
:10062000A8958091600088618093600010926000BE
:100630000FBEE0E0F8E3099511E0A0E0B1E0ECE4E2
:10064000F3E402C005900D92A233B107D9F722E07E
:10065000A2E3B1E001C01D92A431B207E1F70E940C
:10066000BC1A0C9478210C94000090E080E008956E
:100670000895089581E00895089581E008950C9407
:100680003A030E94CD0C2FEF84E39CE02150804080
:100690009040E1F700C000000C94FF14EF92FF922D
:1006A0000F931F93CF93DF938C01FC01E080F180C7
:1006B00080915A01811140C082818823C1F1C70114
:1006C0000E945212C82F682FC7010E94FB11B70168
:1006D0008C2F0E948604EC01B8010E943F038823FE
:1006E00009F44BC0B801CE010E948F06882309F49B
:1006F00044C0C531F0E7DF0720F5C23080E7D807F6
:1007000008F04DC0C115E0E7DE0791F1C130D047D8
:10071000E1F181E08093340180933501C801DF91DC
:10072000CF911F910F91FF90EF900C943D03C70163
:100730000E942912C82FCBCFC7010E945212B701C5
:10074000C8CFCC3380E7D80709F49BC0CD33D0475E
:1007500001F7F8018281882309F4BAC010923501AB
:100760000E94AB14909333018093320180E296C0D3
:10077000F801828181110E94410380E0DF91CF91D5
:100780001F910F91FF90EF900895F80182818823C7
:10079000A1F38091D40181608093D401EECFF80160
:1007A0008281882309F4BACF0E940D14811102C0FE
:1007B0000E94F3130E942A1490E090930602809303
:1007C0000502FE01E350F047809105028160E231AD
:1007D000F10538F4E658FE4D0C942821809105026D
:1007E000826080930502809105020E942E140E946F
:1007F000CD0CC3CF809105028460F3CF80910502B8
:100800008860EFCF809105028061EBCF8091050277
:100810008062E7CF809105028064E3CF809105027A
:100820008068DFCF809105028C60DBCF809105026C
:100830008E7FD7CF809105028D7FD3CF8091050227
:100840008B7FCFCF80910502877FCBCF8091050230
:100850008F7EC7CF809105028F7DC3CF8091050227
:100860008F7BBFCF809105028F77BBCF8091050230
:10087000837FB7CF90910502892F97FB87F9805826
:10088000B0CFF8018281882361F0109234010E9478
:10089000AB14909333018093320182E00E94320ABC
:1008A0006CCF8091340181110FC080913201909101
:1008B00033010E94B714883C910530F486E20E940F
:1008C000070986E20E94E30982E00E94390A55CFB7
:1008D0008091350181110FC08091320190913301D7
:1008E0000E94B714883C910530F487E20E94070902
:1008F00087E20E94E30980E2E8CF0C94DE060C94C4
:10090000E0060C943C030C9481040895972F70E04A
:1009100027E0929F600D711D1124FB019CE1899FCE
:10092000E00DF11D1124EE0FFF1FE455FF4F8591DF
:1009300094910895FC01EE0FFF1FE45DFB4F85913C
:10094000949108950E9486040E9413069C018115CB
:1009500040E4940708F097C0211580E3380708F0B9
:10096000FAC0203E310508F074C0203C310508F083
:10097000E5C0283A310588F4253A310508F0E2C08F
:100980002130310509F477C0C9010497813A9105F6
:1009900008F471C030E020E06EC0C901885A9109A6
:1009A0004597C0F7283A310509F4FEC0293A3105C8
:1009B00009F4FDC02A3A310509F4FCC02B3A31058F
:1009C00009F4FBC02C3A310509F4FAC02B3B310580
:1009D00009F4F9C02C3B310509F4F8C02D3A310572
:1009E00009F4F7C0203B310509F4F6C02E3A310571
:1009F00009F4F5C02F3A310509F4F4C0213B310563
:100A000009F4F3C0223B310509F4F2C0233B310560
:100A100009F4F1C0243B310509F4F0C0253B310550
:100A200009F4EFC0263B310509F4EEC0273B310540
:100A300009F4EDC0283B310509F4ECC0293B310530
:100A400009F4EBC02A3B310509F4EAC020E034E4A4
:100A500012C0211590E2390780F42F3F310509F0CB
:100A600050F4283E310538F0C901805F91093065A6
:100A7000409708F08FCFC9010895C9019F700E9467
:100A80009A049C01F8CF8115944508F041C02115C6
:100A900083E5380708F06AC0211592E5390738F573
:100AA000211541E5340708F05CC0211580E53807C1
:100AB00008F454C0C90134E0969587953A95E1F75A
:100AC0008370422F46954695437090E2499FA0015E
:100AD0001124582B822F837021E030E002C0220FB6
:100AE000331F8A95E2F7242B352B3C68C4CFC9010C
:100AF0008370992741E050E002C0440F551F8A954A
:100B0000E2F72695269580E2289F90011124EBCFED
:100B1000211596E5390748F4922F88272115354588
:100B2000C8F59C01246F306AA6CFC90190563F706A
:100B30008115904108F02ECF30629DCFC901805CB5
:100B400091099DCF253A310549F1263A310549F5FC
:100B500022E830E490CF3327306C8DCF3F70306A7D
:100B60008ACF322F2227216F306A85CFC901837047
:100B7000992741E050E002C0440F551F8A95E2F7E3
:100B80002695269580E2289F90011124242B352B51
:100B90003A6871CF88279F719C01CECF21E830E45D
:100BA0006ACF23E830E467CF22EE34E464CF29EE45
:100BB00034E461CF2AEE34E45ECF25EB34E45BCF3E
:100BC00026EB34E458CF23EB34E455CF24EB34E464
:100BD00052CF27EB34E44FCF2CEC34E44CCF2DEC48
:100BE00034E449CF23E835E446CF2AE835E443CF5F
:100BF00022E935E440CF24E935E43DCF21E236E473
:100C00003ACF23E236E437CF24E236E434CF25E28C
:100C100036E431CF26E236E42ECF27E236E42BCF7E
:100C20002AE236E428CF803E910581F1C8F4813371
:100C3000910509F462C048F48932910509F456C05F
:100C40008A32910509F460C0089589339105B9F09D
:100C500082389105A1F08533910509F440C00895CB
:100C6000863E910561F138F4823E9105B1F0833EF4
:100C70009105E1F00895873E910551F10895209185
:100C800005022370D9F080EE90E0089520910502CE
:100C900020FF14C089E390E008952091050222FF0F
:100CA0000DC024FD09C083EE90E008952091050257
:100CB00022FD31C024FF02C090E080E00895209121
:100CC000050223FFFBCF24FDF7CF87EE90E00895C8
:100CD0002091050223FFEECF86EE90E0089520914B
:100CE000050225FFEBCF89E290E0089520910502EF
:100CF00025FFE4CF85E390E008952091050226FFCB
:100D0000DDCF8AE290E008952091050226FFD6CF3C
:100D100081E390E0089582EE90E0089508950F93A6
:100D20001F93CF938C01FB018281811106C0C1E02A
:100D30008C2FCF911F910F910895C0914301C11144
:100D400025C00531104799F70E948E0681E08093F7
:100D500043010E94AB149093420180934101109291
:100D60003601109238011092370110923A01109218
:100D7000390110923C0110923B0110923E011092F9
:100D80003D011092400110923F01D2CF809141016C
:100D9000909142010E94B714883C910540F68091E1
:100DA0003601E82FF0E0EE0FFF1FE95CFE4F1183E4
:100DB00000838F5F80933601C0E0BACF0C94380374
:100DC0000C943903CF93DF9385B7806885BF85B7CF
:100DD000806885BFAAE1B1E04EE151E0C1E0D0E01A
:100DE0008D91E82FE295EF70F0E061A18F709E0188
:100DF00001C0220F8A95EAF7922F9095962391A32E
:100E000082A1822B82A34A175B0751F7A3E1B1E0CD
:100E10004AE151E0C1E0D0E08D91E82FE295EF701A
:100E2000F0E061A18F709E0101C0220F8A95EAF760
:100E3000922F9095962391A382A1822B82A34A1789
:100E40005B0751F71092480110924401109249013A
:100E50001092450110924A011092460110924B01E6
:100E600010924701DF91CF910C947D046F927F9295
:100E70008F929F92AF92BF92CF92DF92EF92FF92AA
:100E80000F931F93CF93DF9334E4632E31E0732EDF
:100E90004AE1E42E41E0F42E01E010E0DD24D39499
:100EA000E301C9903E01DE011E92F70181917F01AD
:100EB000E82FE295EF70F0E091A18F70A80101C0DA
:100EC000440F8A95EAF7892F842B81A382A1842E6F
:100ED0008094882182A380EA8A95F1F763E171E02A
:100EE00090E080E0EB013991BE01A32EA2942FE0A7
:100EF000A222B12CE50128A19C903F70580101C0AD
:100F0000AA0C3A95EAF7A22220E031F4202F082E0D
:100F100001C0220F0A94EAF729292C930196873001
:100F2000910501F781A1882181A382A1482B42A3C9
:100F30008C91C81641F0D0924C010E94AB14909352
:100F40004E0180934D01D8E46D16D1E07D0609F085
:100F5000A7CF80914C018823D1F080914D019091D1
:100F60004E010E94B714069790F08091440180933F
:100F70004801809145018093490180914601809309
:100F80004A018091470180934B0110924C010E94CD
:100F90007F0481E0DF91CF911F910F91FF90EF903F
:100FA000DF90CF90BF90AF909F908F907F906F9089
:100FB0000895E82FF0E0E85BFE4F808108950895E2
:100FC00090935401809353010895E0915301F0915F
:100FD0005401309721F00190F081E02D099480E0D8
:100FE0000895E0915301F0915401309721F002806F
:100FF000F381E02D09940895E0915301F09154019B
:10100000309721F00480F581E02D09940895209116
:101010005101309152012817390771F09093520114
:1010200080935101E0915301F0915401309721F0E8
:101030000680F781E02D0994089520914F013091A9
:1010400050012817390771F09093500180934F0198
:10105000E0915301F0915401309721F00084F18523
:10106000E02D0994089508950C9433080E94A21469
:101070000E94E2060C946415BF92CF92DF92EF9229
:10108000FF920F931F93CF93DF9300D000D00F9266
:10109000CDB7DEB70E94360786E5C82E81E0D82E90
:1010A00010E000E0E02E802F0E94D907B82EF60154
:1010B000F1906F01F81609F45BC08091D40181FDB5
:1010C0000E94DF0730E020E0FB244F2D50E0922FFC
:1010D000BA01022E02C0759567950A94E2F760FF87
:1010E00041C02983EA8221E030E0790102C0EE0CA0
:1010F000FF1C9A95E2F72B2D30E02E213F2181E055
:10110000232B09F480E08B830E94AB148160782F3D
:101110009D838C8349815A816B818D810E94DE0879
:10112000F801EA5AFE4F80818E2580830E941118B3
:101130000E94E50790915501891789F10E94E50702
:10114000809355010F900F900F900F900F90DF91AB
:10115000CF911F910F91FF90EF90DF90CF90BF90B4
:101160000C9483042F5F3F4F2730310509F0AFCF38
:101170000F5F1F4F0430110509F094CF8FEF898363
:101180008A831B820E94AB148160782F9D838C839D
:1011900049815A816B818D810E94DE08C7CF0F90F3
:1011A0000F900F900F900F90DF91CF911F910F91A3
:1011B000FF90EF90DF90CF90BF900895CF93DF9393
:1011C000CDB7DEB72B970FB6F894DEBF0FBECDBFFD
:1011D0004F83588769877A878B871E8285E0FE0157
:1011E0003796DE01119601900D928A95E1F74981BB
:1011F0005A816B817C818D819E812B960FB6F894EC
:10120000DEBF0FBECDBFDF91CF910C94550F882369
:1012100009F4D8C0823871F40E94E50781FDD2C07C
:1012200089E30E94FA120E94C41389E30E943713D3
:101230000C94C413833859F40E94E50780FDC2C0A2
:1012400083E50E94FA120E94C41383E5EFCF84382D
:1012500059F40E94E50782FDB5C087E40E94FA12A6
:101260000E94C41387E4E2CF9CEF980F913A18F4E0
:101270000E94FA12DDCF90E2980F983050F48770F8
:1012800091E001C0990F8A95EAF7892F0E947B139C
:10129000CFCF9BE5980F933070F4853A31F0863AC2
:1012A00039F083E890E00C94070881E890E0FBCFE8
:1012B00082E890E0F8CF98E5980F953108F082C069
:1012C000883A09F440C0893A09F440C08A3A09F4DE
:1012D00040C08B3A09F440C08C3A09F440C08B3BC3
:1012E00009F440C08C3B09F440C08D3A09F440C079
:1012F000803B09F440C08E3A09F440C08F3A09F4AB
:1013000040C0813B09F440C0823B09F440C0833BAC
:1013100009F440C0843B09F440C0853B09F440C057
:10132000863B09F440C0873B09F440C0883B09F480
:1013300040C0893B09F440C08A3B09F440C090E0BA
:1013400080E00C941D0882EE90E0FBCF89EE90E0E7
:10135000F8CF8AEE90E0F5CF85EB90E0F2CF86EB08
:1013600090E0EFCF83EB90E0ECCF84EB90E0E9CF1F
:1013700087EB90E0E6CF8CEC90E0E3CF8DEC90E053
:10138000E0CF83E891E0DDCF8AE891E0DACF82E92F
:1013900091E0D7CF84E991E0D4CF81E292E0D1CF40
:1013A00083E292E0CECF84E292E0CBCF85E292E07E
:1013B000C8CF86E292E0C5CF87E292E0C2CF8AE250
:1013C00092E0BFCF0895882309F44BC0823871F4AE
:1013D0000E94E50781FF45C089E30E94FA120E943E
:1013E000C41389E30E9437130C94C413833859F44F
:1013F0000E94E50780FF35C083E50E94FA120E9433
:10140000C41383E5EFCF843859F40E94E50782FFC7
:1014100028C087E40E94FA120E94C41387E4E2CF36
:101420009CEF980F913AF0F290E2980F983050F4B8
:10143000877091E001C0990F8A95EAF7892F0E9481
:101440008113D2CF9BE5980F933020F490E080E099
:101450000C940708885A853120F490E080E00C94C1
:101460001D080895882321F00E947B130C94C41357
:101470000895882321F00E9481130C94C4130895C9
:101480008F929F92AF92BF92DF92EF92FF920F9353
:101490001F93CF93DF9300D000D00F92CDB7DEB76C
:1014A0007C016D837983FC01058102950F701281A7
:1014B00011110E949A130E94F312D82E882371F002
:1014C0001123A1F08D81805E883080F082E00E943F
:1014D000DD120E94F31291E0D82ED926E981E2951F
:1014E000EF70F0E0E457FE4D0C942821D12CF6CF9C
:1014F00009810F70F981F07F11F00295007F1123AF
:10150000B1F0002361F08D81805E883018F02D816C
:10151000211109C0802F0E947B130E94C4138D816A
:101520000E94070915C0802F0E948C13F6CF8D8171
:101530000E94E309002361F08D81805E883018F0FD
:101540003D81311129C0802F0E9481130E94C41354
:10155000DD2009F4D3C10E94D01280FDCFC1F70174
:1015600012820E94CA120E941311C7010E948F0C9E
:101570000E94CA120F900F900F900F900F90DF9162
:10158000CF911F910F91FF90EF90DF90BF90AF90A0
:101590009F908F900C943511802F0E949213D6CF7C
:1015A00049814F70B42E5981507F503219F0B29456
:1015B00080EFB8228D81882369F0813029F11123D1
:1015C00069F1002359F0F701858180FFA8CF8F7062
:1015D000858304C0112361F0011104C08B2D0E948A
:1015E000320AB6CF8B2D0130D1F70E94AE13B0CFA7
:1015F000011106C00E94B1138B2D0E94390AA8CF99
:10160000013009F4A5CFF6CF112321F0063008F000
:101610009FCFE4CF053008F09BCFEECF002361F3DE
:101620008D810E94E30994CF898186958695837088
:1016300069F0813009F08CCF8D81998193701111FF
:1016400002C090E080E00E941D0882CF8D819981C8
:101650009370111102C090E080E00E94070878CFDB
:101660008D81112329F00E941F170E94061870CF48
:101670000E948717FACF8981837009F05FC011112A
:1016800067CF2D81229526952770220F220F8D81FD
:101690008F7090E0B0E0A0E04C015D01022E04C02C
:1016A000880C991CAA1CBB1C0A94D2F7FD8160E02F
:1016B00070E0CB01F4FF0FC06FE070E080E090E0DD
:1016C00004C0660F771F881F991F2A95D2F760956F
:1016D00070958095909529812695269523702D8368
:1016E0002230B1F0233019F19B01AC0128293929AE
:1016F0004A295B2929833A834B835C833D81698135
:101700007A818B819C813130B1F00E94A01020CF72
:101710009B01AC01282939294A295B2929833A836D
:101720004B835C83CA01B9010E94CA1011CF0E9489
:10173000A010C501B4010E9476100ACF869511232E
:1017400011F089818170882309F402CF2D812295BF
:1017500026952770220F220F8D818F7090E0B0E0C8
:10176000A0E04C015D01022E04C0880C991CAA1C4B
:10177000BB1C0A94D2F73D8160E070E0CB0134FFDE
:101780000FC06FE070E080E090E004C0660F771F4C
:10179000881F991F2A95D2F760957095809590952E
:1017A00049814695469543704D834230B1F04330B0
:1017B00019F19B01AC01282939294A295B29298380
:1017C0003A834B835C833D8169817A818B819C81E3
:1017D0003130B1F00E94A611BBCE9B01AC0128298B
:1017E00039294A295B2929833A834B835C83CA01BF
:1017F000B9010E94D011ACCE0E94A611C501B4015E
:101800000E947C11A5CE3D81323F09F447C080F48F
:10181000303F79F1313FD9F1832F805E8031D0F0B4
:10182000112309F456C001117ACE89818F7133C01A
:101830004D81433FD1F1443F99F7112309F43FC053
:1018400089818F7189830E94131163E089810E94CD
:10185000D4127ECE5D815F705D8389818F7111238B
:1018600021F00E9413118D81BACE0E9435118D8115
:10187000C4CE112341F0053008F06ACE89818F7102
:101880000E945A1165CE063008F062CEF7CF8981EA
:101890008F71112339F00E9413115ACE89818F71F3
:1018A0001123C9F30E94351153CE112329F08981E8
:1018B0008F710E94FE104CCE0E94F41049CE81E040
:1018C0000E94DD12023008F443CE82E00E94DD1255
:1018D0003FCE0111A5CE89818F71E4CF49814F7030
:1018E0006D81C7010E9435030E94EF0F31CE4981FF
:1018F0004F706D81C7010E9485042ACE0F900F9012
:101900000F900F900F90DF91CF911F910F91FF904B
:10191000EF90DF90BF90AF909F908F9008950F93BE
:101920001F93CF93DF93EC018B819C81892B29F04E
:101930008881998189238F3F29F4DF91CF911F916D
:101940000F910895CE010E944E038823B1F3688160
:1019500079818A810E94A0128C010E94FA110E9452
:101960006B10B801CE01DF91CF911F910F910C94B4
:10197000400A0E949A130E94AB130E946D130E94AA
:10198000C4130E94F7180E94061890E080E00E949D
:10199000070890E080E00C941D080E9489130C94C5
:1019A000B90C0E949412282F892F82958F70903C39
:1019B00080F48A30B0F4843020F4823090F480E0F7
:1019C00008958630E1F781E0203E88F0213FB9F7A5
:1019D0000EC08C3011F08F3091F793FB882780F97F
:1019E000089581E0203F39F018F4203E40F7089533
:1019F000243F29F7FCCF0895CF93DF9300D000D088
:101A00000F92CDB7DEB70F900F900F900F900F9001
:101A1000DF91CF910895CF93DF9300D000D000D015
:101A2000CDB7DEB726960FB6F894DEBF0FBECDBF9A
:101A3000DF91CF9108951F93CF93DF93E0915B01E6
:101A400016E080915C018E1304C0DF91CF911F914D
:101A50000895CE2FD0E01E9FF0011124E35AFE4FCF
:101A60004081518162817381848195810E940B0D37
:101A7000FE013196E770E5CF40918D0150918E01C6
:101A800060918F01709190018091910190919201EC
:101A90000C940B0D1F93CF93DF9380919201807F65
:101AA000C1F480918F018823A1F080915B01C091E6
:101AB0005C0160918D0170918E0140919001509177
:101AC0009101D62FD723DA01A095B09516E0C8135F
:101AD00004C0DF91CF911F91089590E04115510509
:101AE00011F0DF3F31F401968770F1CF2A0F3B1FD1
:101AF00017C0189FF001199FF00D1124E35AFE4FF3
:101B000021812713F0CF20812613EDCF22812111CF
:101B1000EACF238134812417350740F3241B350B8A
:101B2000283C310500F7209192012F70206120930D
:101B3000920126E0289FF001299FF00D1124EE5913
:101B4000FE4F80818F70806180838DE891E00E94DC
:101B50008F0CDF91CF911F910C941B0D9F92AF9230
:101B6000BF92CF92DF92EF92FF920F931F93CF938A
:101B7000DF93CDB7DEB72B970FB6F894DEBF0FBE5D
:101B8000CDBF8C0185E0F801DE01179601900D9222
:101B90008A95E1F7D8014C9111965C9111971296B4
:101BA000EC9012978091900190919101009709F427
:101BB0006BC120918D0130918E01632F62236F3FA5
:101BC00009F462C11396CD90DC9090908F0199201A
:101BD00009F4F8C0C816D90608F43FC0F601E81B9E
:101BE000F90BCF01FF24F394883C910508F0F12C08
:101BF0008DE8A82E81E0B82E80919201982F907FD9
:101C0000FF2009F4B7C0911180C0FE2C35132AC003
:101C1000241328C0E11026C08F7080618093920148
:101C20000E943C0DC5010E948F0C80919201D80149
:101C300015968C938F2D2B960FB6F894DEBF0FBEA2
:101C4000CDBFDF91CF911F910F91FF90EF90DF906B
:101C5000CF90BF90AF909F900895809590958C0DF8
:101C60009D1DC0CFCD2829F0842F85238F3F09F0FB
:101C700019C180E0B82FB170DB2EE0915B0120919B
:101C80005C0136E080FD1CC0EE20A1F28091920143
:101C9000816080939201F12CCDCF8E2F90E03E9FFA
:101CA000F0011124E35AFE4F6181651306C0608183
:101CB000641303C062816E11E7CFFC013196E770B7
:101CC000E213EBCF4F8358878F8198850E9494123F
:101CD000292F22952F70903260F0225F2F702230D2
:101CE00078F49F7051F0F8019581907F31F4D12CF8
:101CF0000AC09F7011F08823D1F3805E8830B8F35A
:101D0000C8010E948F0CFD2C95CF351306C02413FB
:101D100004C0D801EE2009F47BC04F8358878F811F
:101D200098850E94D10C882309F4B8C0EE2009F4EC
:101D3000B5C080919201803270F020918D01309178
:101D40008E013A8329831B82DD82CC828E83CE0171
:101D500001960E948F0C86E0F801ADE8B1E0019099
:101D60000D928A95E1F70E944A0D0E943C0DFF24D6
:101D7000F39460CF911113C07C2DDB86CA866E2D43
:101D80008B850E94FC0C8DE891E00E948F0C86E010
:101D9000F50111928A95E9F70E943C0D4BCF35135E
:101DA000BCCF2413BACFE110B8CFD80115968C93CD
:101DB000C8010E948F0C86E0F50111928A95E9F71F
:101DC000F92C38CFC816D90688F1B601681B790BF3
:101DD000CB01F12C883C910508F047C0FE2CEE2089
:101DE00009F45CC0351330C024132EC080919201D9
:101DF00080FD21C0982F907FF1F0D80115968C932B
:101E00001597903F39F0982F907F905F8F70892BB6
:101E100015968C93C8010E948F0C86E0F801ADE8FE
:101E2000B1E001900D928A95E1F7B6CF809590953B
:101E30008C0D9D1DCECF86E0F801ADE8B1E001909C
:101E40000D928A95E1F7F6CE4F8358878F8198855A
:101E50000E94D10C81117FCF80919201816080938B
:101E60009201C8010E948F0CE5CE7C2DDB86CA86CC
:101E70006E2D8B850E94FC0C86E0EDE8F1E0DF0121
:101E80001D928A95E9F788CFEE2041F04F8358875D
:101E90008F8198850E94D10C81115DCFC8010E946D
:101EA0008F0C65CF81E08E25E5CE1F93CF93DF9316
:101EB000CDB7DEB72C970FB6F894DEBF0FBECDBFFF
:101EC0004F83588769877A878B879C87CE010796CF
:101ED0000E94AE0D882369F08A859B85892B39F095
:101EE0004F815885842F85238F3F09F071C016E0FC
:101EF0005FC086E0FE013796DE01119601900D92DB
:101F00008A95E1F78A859B85892B89F388859F814E
:101F100089238F3F61F320915C0130E0C901019674
:101F20008770992740915B014817190671F40E9448
:101F3000CD0C10925C0110925B0186E0EDE8F1E0BF
:101F4000DF011D928A95E9F7D2CF96E0929FD001EA
:101F5000939FB00D1124A35ABE4FFE0131960190FC
:101F60000D929A95E1F780935C010E941B0DBFCF03
:101F7000819FC0011124835A9E4F0E94AE0D882379
:101F8000E9F0E0915B011E9FF0011124E35AFE4F3E
:101F90004081518162817381848195810E940B0D02
:101FA00080915B0190E001968770992780935B0197
:101FB00080915B0190915C018913DACF2C960FB66A
:101FC000F894DEBF0FBECDBFDF91CF911F91089572
:101FD00069857A858B859C850E940B0D88CFEF9251
:101FE000FF920F931F93CF93DF938C01892B89F07E
:101FF000F12CEE24E394E8012196F80184918437D2
:1020000009F457C0A0F4823009F43EC048F481308E
:10201000D1F0DF91CF911F910F91FF90EF90089534
:102020009CEF980F9037A8F70E9407090AC08537E0
:1020300009F44CC09CE7980F903758F78F770E94AF
:10204000E3098E0116C00E5F1F4FFE01849190E2DE
:10205000980F983060F48770FE2D01C0FF0F8A95AD
:10206000EAF78F2F0E949D130E94C41302C00E94A2
:1020700007098F2D815008F4BECFEFE9FFE03197BB
:10208000F1F700C00000F6CF0E5F1F4FFE018491F4
:1020900090E2980F983050F48770FE2D01C0FF0F2A
:1020A0008A95EAF78F2F0E94A313DECF0E94E309DF
:1020B000E0CF0E5F1F4FFE01C491C150D0F28FE9F7
:1020C0009FE00197F1F700C00000F7CF0E5F1F4FB0
:1020D000FE01F490CECF08956093AB017093AC01F4
:1020E0008093AD019093AE010C94B90CCF93DF9324
:1020F00000D000D0CDB7DEB769837A838B839C8311
:102100008091AB019091AC01A091AD01B091AE0175
:1021100029813A814B815C81822B932BA42BB52B97
:102120008093AB019093AC01A093AD01B093AE014D
:102130000F900F900F900F90DF91CF910C94B90CEE
:10214000CF93DF9300D000D0CDB7DEB769837A8319
:102150008B839C838091AB019091AC01A091AD01E8
:10216000B091AE0129813A814B815C818223932316
:10217000A423B5238093AB019093AC01A093AD0150
:10218000B093AE010F900F900F900F90DF91CF9111
:102190000C94B90CCF93DF9300D000D0CDB7DEB74D
:1021A00069837A838B839C838091AB019091AC018E
:1021B000A091AD01B091AE0129813A814B815C8142
:1021C00082279327A427B5278093AB019093AC0176
:1021D000A093AD01B093AE010F900F900F900F90B0
:1021E000DF91CF910C94B90C1092A7011092A80125
:1021F0001092A9011092AA010C94B90C41E050E090
:1022000060E070E004C0440F551F661F771F8A9579
:10221000D2F74093A7015093A8016093A90170934E
:10222000AA010C94B90C282F81E090E0A0E0B0E066
:1022300004C0880F991FAA1FBB1F2A95D2F740918F
:10224000A7015091A8016091A9017091AA01842B66
:10225000952BA62BB72B8093A7019093A801A09351
:10226000A901B093AA010C94B90C41E050E060E0E0
:1022700070E004C0440F551F661F771F8A95D2F780
:1022800040955095609570958091A7019091A80117
:10229000A091A901B091AA0184239523A623B72375
:1022A0008093A7019093A801A093A901B093AA01DC
:1022B0000C94B90C282F81E090E0A0E0B0E004C0BD
:1022C000880F991FAA1FBB1F2A95D2F74091A7011B
:1022D0005091A8016091A9017091AA0184279527C6
:1022E000A627B7278093A7019093A801A093A901DF
:1022F000B093AA010C94B90CCF93DF9300D000D017
:10230000CDB7DEB769837A838B839C838091A701E5
:102310009091A801A091A901B091AA0129813A81C7
:102320004B815C81822B932BA42BB52B8093A7012F
:102330009093A801A093A901B093AA010F900F90C8
:102340000F900F90DF91CF910C94B90CCF93DF9346
:1023500000D000D0CDB7DEB769837A838B839C83AE
:102360008091A7019091A801A091A901B091AA0123
:1023700029813A814B815C8182239323A423B52355
:102380008093A7019093A801A093A901B093AA01FB
:102390000F900F900F900F90DF91CF910C94B90C8C
:1023A000CF93DF9300D000D0CDB7DEB769837A83B7
:1023B0008B839C838091A7019091A801A091A90192
:1023C000B091AA0129813A814B815C8182279327B0
:1023D000A427B5278093A7019093A801A093A901F2
:1023E000B093AA010F900F900F900F90DF91CF91B3
:1023F0000C94B90C0895E82F27E0929FE00D11246A
:102400008E2F877041E001C0440F8A95EAF7E69568
:10241000E695E69585E0E89FF0011124ED56FE4F24
:1024200030E020E070E05191DF011197CB01022EE6
:1024300002C0969587950A94E2F781708195852769
:10244000842385278C932F5F3F4F2530310559F723
:102450000895E82F27E0929FE00D11249E2F97709A
:10246000E695E695E69585E0E89FF0011124ED56A6
:10247000FE4F50E040E080E0219130E0092E02C0A4
:10248000369527950A94E2F721703327042E01C070
:10249000220F0A94EAF7822B4F5F5F4F45305105B8
:1024A00059F70895BF92CF92DF92EF92FF920F9368
:1024B0001F93CF93DF938C01C090A701D090A80108
:1024C000E090A901F090AA018091AB019091AC013C
:1024D000A091AD01B091AE01C82AD92AEA2AFB2AFF
:1024E000CFE1D0E0BC2ED701C6010C2E04C0B695BA
:1024F000A795979587950A94D2F780FD0EC02197EE
:1025000088F7B12C8B2DDF91CF911F910F91FF9008
:10251000EF90DF90CF90BF900895B8018C2F0E946C
:10252000A204019761F3EECFCF93DF93D82FC92F89
:102530000E9452126D2F7C2FDF91CF910C94A20438
:102540001F93CF93DF93162FD72F90915A01992382
:1025500039F0862F972FDF91CF911F910C94941211
:10256000882391F0862F972F0E945212C82F682F30
:10257000812F9D2F0E94FB11612F7D2F8C2FDF91CA
:10258000CF911F910C94A204862F972F0E9429129D
:10259000C82FF2CF8091AF018595859585950895D7
:1025A0008091AF018770089598E0899F9001112470
:1025B000622B6093AF010C9413119091AF01809541
:1025C00089238093AF01282F277061F4282F082ECC
:1025D000000C330B9217130629F085958595859588
:1025E0000C94351108959091AF01977081E009F432
:1025F00080E00895909112019923E1F090910502F5
:1026000097FF18C0E82FE695E695E695EF3139F18A
:102610002091000130910101E20FF32FF11D87702D
:1026200021E030E001C0220F8A95EAF78181822BF8
:10263000818308952091000130910101F9013296C2
:102640009FEF40E05191851751F09F3F19F45111D0
:1026500001C0942F4F5F4E31A9F79F3F09F40895B1
:10266000290F311D97FD3A95F901828308959091C4
:102670001201992301F19091050297FF1CC0E82FE8
:10268000E695E695E695EF3139F12091000130911C
:102690000101E20FF32FF11D877021E030E0A90165
:1026A00002C0440F551F8A95E2F7CA0180959181B7
:1026B0008923818308952091000130910101F9015E
:1026C0003296205E3F4F9191891303C0DF0111972D
:1026D0001C92E217F307B9F7089581E090E0E091CA
:1026E0000001F0910101E80FF91F1082019680327C
:1026F0009105A9F708959091D301982B9093D30158
:102700000895982F90958091D30189238093D301C8
:1027100008951092D30108959091D201982B90932F
:10272000D2010895982F90958091D20189238093AA
:10273000D20108951092D20108959091D101982B61
:102740009093D1010895982F90958091D10189237C
:102750008093D10108951092D10108958093B00122
:1027600008951092B0010895209100013091010167
:10277000F9013196205E3F4F80E0919191118F5F7A
:10278000E217F307D1F70895E0910001F0910101FC
:102790008091D3018083E0910001F091010180815B
:1027A0009091D201892B8083E0910001F091010189
:1027B00080819091D101892B80839091B0019923E0
:1027C00061F0E0910001F09101018081892B80830B
:1027D0000E94B41381111092B00180910001909178
:1027E00001010C94F1076DEE7EEF90E080E00E9415
:1027F000622160E082E090E00E94502160E083E08E
:1028000090E00E94502160E084E090E00E9450211E
:1028100060E085E090E00C94502190E080E00E9420
:102820004A219C0181E02D3E3E4F09F080E0089551
:1028300082E090E00C944221682F82E090E00C94BA
:10284000502183E090E00C944221682F83E090E0D7
:102850000C94502184E090E00C944221682F84E095
:1028600090E00C94502180910B02843039F1109249
:10287000D50188E190E020E40FB6F894A895809304
:1028800060000FBE2093600080E00E94830483B745
:10289000817F846083BF83B7816083BF789488958C
:1028A00083B78E7F83BF0FB6F894A89580916000A0
:1028B000886180936000109260000FBE08950895B3
:1028C0000895CF930E945F140E9436070E946014FF
:1028D000C0E08C2F0E94D907811105C0CF5FC430A2
:1028E000C1F7CF91089581E0FCCF0E94CD0C0E94EA
:1028F000E5070C9483041F921FB61F9211248F9337
:102900009F93AF93BF938091D501811113C08091A4
:10291000010290910202A0910302B091040241963B
:10292000A11DB11D8093010290930202A0930302A6
:10293000B0930402BF91AF919F918F911F901FBEE2
:102940001F90189582E084BD93E095BD9AEF97BDE6
:1029500080936E0008952FB7F894809101029091B2
:102960000202A0910302B09104022FBF0895CF92FA
:10297000DF92EF92FF929C014FB7F8948091010291
:1029800090910202A0910302B09104024FBF6C012A
:102990007D01EE24FF24A90170E060E0C416D50695
:1029A000E606F70638F0821B930BFF90EF90DF905E
:1029B000CF9008950197F7CF1F921FB61F92112451
:1029C0008F939F93AF93BF938091010290910202E6
:1029D000A0910302B09104020196A11DB11D809344
:1029E000010290930202A0930302B0930402BF91EC
:1029F000AF919F918F911F901FBE1F9018950E94BD
:102A0000EB1CF8942FEF87EA91E62150804090402C
:102A1000E1F700C0000087E090EBDC018093140236
:102A200090931502A0931602B093170288E19CE0E0
:102A30000FB6F894A895809360000FBE9093600045
:102A4000FFCFCF92DF92EF92FF920F931F93CF931E
:102A5000C0E0E82EF12C8C2F0E94D90710E000E096
:102A6000C82ED12CC601002E02C0959587950A94D8
:102A7000E2F780FF11C0602F7C2F80E00E94860467
:102A8000E816F90649F481E0CF911F910F91FF906C
:102A9000EF90DF90CF9008950F5F1F4F0730110523
:102AA00009F7CF5FC430B9F680E0EECFCF93C82FDF
:102AB0008CE20E942115882321F08C2FCF910C9459
:102AC000211580E0CF910895CF93DF9300D000D0FF
:102AD000CDB7DEB70E940D14811102C00E94F3131E
:102AE00095E6998308C00E9436078FE39CE9019719
:102AF000F1F700C00000A981A150A983A111F3CF73
:102B000089E20E945615811110C18AE20E94561571
:102B100081110E94F31385E00E94561581110E94D5
:102B2000FF140E9418148093D40187E00E94561568
:102B3000882371F08BE10E945615882309F4D1C0D7
:102B40009091D401892F8D7F91FF82608093D40171
:102B50008091D4010E941C140E942A1490E090934A
:102B600006028093050280EE0E945615882341F0EC
:102B700090910502892F8E7F90FF816080930502DE
:102B800089E30E945615882341F090910502892F10
:102B90008D7F91FF82608093050282EE0E94561520
:102BA000882341F090910502892F8B7F92FF8460EA
:102BB0008093050286EE0E945615882341F090917D
:102BC0000502892F877F93FF88608093050283EE3B
:102BD0000E945615882341F090910502892F8F7E1F
:102BE00094FF80618093050285E30E945615882337
:102BF00041F090910502892F8F7D95FF806280932F
:102C0000050281E30E945615882341F09091050248
:102C1000892F8F7B96FF80648093050281E10E945B
:102C20005615882341F090910502892F97FB87F96B
:102C3000805880930502809105020E942E1487E23D
:102C40000E94561589838EE10E945615882319F03B
:102C5000B981B260B9838FE10E945615882319F0BB
:102C600029812460298380E20E945615882319F067
:102C700039813860398381E20E945615882319F022
:102C800049814061498382E20E945615882319F0E8
:102C900059815062598383E20E945615882319F0A6
:102CA00089818064898384E20E9456158823B1F16A
:102CB00099819068998389810E9425143981232FF5
:102CC00030E050E040E029833A834B835C83CA01C3
:102CD000B9010F900F900F900F90DF91CF910C944E
:102CE0006C108EE00E945615882339F09091D40123
:102CF000892F8B7F92FF846029CF80E10E94561537
:102D00009091D401882329F0892F877F93FF8860D1
:102D10001DCF892F8E7F90FF816018CFA981A111CF
:102D2000CACF0E942114282FCBCF0F900F900F9065
:102D30000F90DF91CF9108958091D80180FF12C04C
:102D40006091050185E0689FB00111247595679534
:102D50007595679560387105A8F561157105A1F144
:102D6000862F089581FF09C06091050185E0689F65
:102D7000B001112475956795EDCF6091050182FD35
:102D80000AC08091D9018823D1F09091040160910B
:102D90000501891728F085E0689FB0011124DACF7A
:102DA000869FB001112485E0869F9001879F300D9A
:102DB0001124692F70E0C9010E941421CBCF65E076
:102DC00070E0CECF8FE7089581E008958091D8011B
:102DD00080FF0CC06091030170E075956795759553
:102DE00067956115710549F1862F089581FF06C029
:102DF0006091030170E075956795F3CF60910301D1
:102E000082FD0BC09091D9019923A1F0609102013C
:102E100080910301961738F0682F70E060387105D3
:102E200000F38FE70895899FC001112470E00E948C
:102E30001421F4CF61E070E0D7CF81E00895803FA6
:102E400031F40E949C1681958093DC010895813FA6
:102E500019F40E949C16F8CF823F31F40E949C1610
:102E600081958093DB010895833F19F40E949C169D
:102E7000F8CF893F29F40E94E6168093DD0108957A
:102E80008A3F21F40E94E6168195F7CF8B3F31F4FB
:102E90000E94E61681958093DE0108958C3F19F417
:102EA0000E94E616F8CF843F31F48091DA01816008
:102EB0008093DA010895853F21F48091DA018260E0
:102EC000F7CF863F21F48091DA018460F1CF873F0C
:102ED00021F48091DA018860EBCF883F21F4809162
:102EE000DA018061E5CF8D3F31F48091D8018160B6
:102EF0008093D80108958E3F21F48091D80182609B
:102F0000F7CF8F3FB9F78091D8018460F1CF9091CE
:102F1000DB01803F41F48091DC0187FD1092DC01F0
:102F2000992371F00895813F29F48091DC011816EE
:102F3000ACF3F6CF823F81F497FFF2CF1092DB0122
:102F40008091DC019091DD01892B9091DE01892B2C
:102F500049F71092D9010895833F19F4191674F3B3
:102F6000DFCF893F39F48091DD011816CCF610923D
:102F7000DD01D6CF8A3F29F48091DD0187FFD0CFD4
:102F8000F6CF8B3F39F48091DE0187FFC9CF1092D5
:102F9000DE01C6CF8C3F29F48091DE011816BCF308
:102FA000BFCF843F31F48091DA018E7F8093DA01C4
:102FB000B7CF853F21F48091DA018D7FF7CF863F2F
:102FC00021F48091DA018B7FF1CF873F21F480914A
:102FD000DA01877FEBCF883F21F48091DA018F7E81
:102FE000E5CF8D3F31F48091D8018E7F8093D80159
:102FF00097CF8E3F21F48091D8018D7FF7CF8F3FFF
:1030000009F08ECF8091D8018B7FF0CF8AED91E0CF
:103010000E94FC070E94AB149093D7018093D601C5
:1030200008951F93CF93DF9300D000D000D0CDB789
:10303000DEB78091D6019091D7010E94B714AC0100
:103040008091D9012091060130E0811106C02091C4
:1030500007019AE0299F900111244217530788F035
:103060002091DB01A091DC01A9831091DD01B091D9
:10307000DE01BE8321110FC09A2F912B9B2B09F0EB
:10308000B2C026960FB6F894DEBF0FBECDBFDF915B
:10309000CF911F9108958F3F19F08F5F8093D901D1
:1030A000121624F40E949C168093DB018091DB01B0
:1030B00087FF05C00E949C1681958093DB012981C2
:1030C000121624F40E949C168093DC018091DC018E
:1030D00087FF05C00E949C1681958093DC0180913A
:1030E000DB01882309F455C03091DC013D83332393
:1030F00009F44FC0282F880F330B440B550B29833D
:103100003A834B835C83CA01B9010E941B2023E3ED
:1031100033E343E35FE369837A838B839C83698131
:103120007A818B819C810E947F2069837A838B8343
:103130009C8369817A818B819C810E94E31F6093CB
:10314000DB018D81082E000C990BAA0BBB0B898328
:103150009A83AB83BC83BC01CD010E941B2023E377
:1031600033E343E35FE369837A838B839C836981E1
:103170007A818B819C810E947F2069837A838B83F3
:103180009C8369817A818B819C810E94E31F60937B
:10319000DC01111624F40E94E6168093DD01809173
:1031A000DD0187FF05C00E94E61681958093DD0151
:1031B0009E81191624F40E94E6168093DE01809108
:1031C000DE0187FF05C00E94E61681958093DE012F
:1031D00026960FB6F894DEBF0FBECDBFDF91CF911C
:1031E0001F910C9406188F3F09F057CF68CF85E0E8
:1031F000EAEDF1E0DF011D928A95E9F71092D9011D
:103200001092D80108958091FF010895CF93DF9324
:1032100000D00F92CDB7DEB720910B02243019F504
:1032200023E029838A839B832093E9008FEF909189
:10323000E800815095FD06C095ED9A95F1F70000E4
:103240008111F5CF8091E80085FF0DC050E040E08E
:1032500063E070E0CE0101960E94631B8091E8005C
:103260008E778093E8000F900F900F90DF91CF91B1
:103270000895CF93DF9300D00F92CDB7DEB79C01B6
:1032800080910B02843031F582E089832058310926
:103290003B832A8383E08093E9008FEF9091E800DD
:1032A000815095FD06C095ED9A95F1F700008111CA
:1032B000F5CF8091E80085FF0DC050E040E063E06D
:1032C00070E0CE0101960E94631B8091E8008E772A
:1032D0008093E8000F900F900F90DF91CF910895A9
:1032E00020910B022430F1F422E02093E9002FEF2B
:1032F0003091E800215035FD06C035ED3A95F1F7E3
:1033000000002111F5CF2091E80025FF0BC050E00F
:1033100040E065E070E00E94631B8091E8008E77DA
:103320008093E8000895CF93DF93D82FC92F809121
:103330000B028430F1F4909112019923E9F09091FD
:10334000050297FF19C08093E9008FEF9091E80084
:10335000815095FD06C095E19A95F1F70000811125
:10336000F5CF8091E80050E040E060E270E085FD3C
:103370001AC0DF91CF91089581E08093E9008FEF2B
:103380009091E800815095FD06C095ED9A95F1F772
:1033900000008111F5CF8091E80085FFEACF50E071
:1033A00040E068E070E08D2F9C2F0E94631B8091AD
:1033B000E8008E778093E80080E2ED2FFC2FAFEDE0
:1033C000B1E001900D928A95E1F7D3CF80910A0286
:1033D000811109C00E94EB1C0E94481D8091E200EF
:1033E00084608093E200089510920A02089508957F
:1033F00008950C94751442E061EC81E00E94671C12
:1034000042E061EC82E00E94671C42E061EC83E0F4
:103410000E94671C42E261EC84E00C94671C80917E
:103420000D02893089F148F4823009F494C0833068
:1034300009F44FC0813041F008958A3009F47BC00F
:103440008B3009F461C0089580910C02813A09F033
:103450003FC08091E800877F8093E8008091100250
:1034600090911102892B61F460E28FED91E070E0A0
:103470000E94B21B8091E8008B778093E80008954A
:1034800060E090E080E0F3CF80910C02813201F5A2
:103490008091100290911102009711F00397C1F4EE
:1034A0008091E800877F8093E8008091E80082FFA8
:1034B0000BC08091F1008093FF018091E8008B7731
:1034C0008093E8000C949B1C80910B028111EDCF3E
:1034D000089580910C02813AD9F780911002909161
:1034E0001102892BA9F78091E800877F8093E8007B
:1034F0008091E80080FFFCCF809112018093F10061
:103500008091E8008E77DCCF80910C02813201F748
:103510008091100290911102892BD1F68091E800E0
:10352000877F8093E8000E949B1C80910E0280930D
:1035300012010C94CD0C80910C02813249F68091DD
:10354000E800877F8093E8000E949B1C80910F0217
:1035500080930002089580910C02813A09F0B8CF5F
:103560008091E800877F8093E8008091E80080FFE9
:10357000FCCF80910002C2CF84B7877F84BF0FB693
:10358000F894A89580916000886180936000109203
:1035900060000FBE80E880936100109261000E947D
:1035A00034080E94EB1C0E94481D8091E200846058
:1035B0008093E20078940E94C81F0E94360888E039
:1035C00091E00E94E00780910B02853019F00E9483
:1035D0003C08F9CF0E94331480910902882399F3A3
:1035E0000E946114882379F30E944D1BECCF9C014B
:1035F000DA01892F992783309105C1F068F4813071
:10360000910509F445C0029761F48DE690E02CE540
:1036100034E02D933C93089581329105E1F0829737
:1036200039F190E080E030E020E0F3CFC901992744
:10363000213059F08230910559F0E8E5F4E0892B0A
:1036400081F7849190E09F01E4CFE0E4F4E0F9CFCA
:10365000ECE2F4E0F6CF643020F7E62FF0E0EE0F76
:10366000FF1FE65DFE4F2081318189E090E0D1CFE0
:103670006430B8F670E0FB01EE0FFF1FEE5DFE4F09
:1036800020813181625E7E4FFB01808190E0C1CF5D
:1036900082E190E029EC34E0BCCF80E189BD82E199
:1036A00089BD09B400FEFDCF8091D8008F7D809345
:1036B000D8008091E00082608093E0008091E0007B
:1036C00081FDFCCF0895AF92BF92CF92DF92FF921F
:1036D0000F931F93CF93DF936C01EB018A010E943C
:1036E000BA1CF82E811123C00115110539F0F8011B
:1036F00080819181C81BD90BC80ED91EB12CA12C79
:103700002097A9F08091E80085FD22C08091E80013
:103710008E778093E80001151105A1F0F8018081F2
:103720009181A80EB91EB182A08285E0F82E8F2D5E
:10373000DF91CF911F910F91FF90DF90CF90BF90BD
:10374000AF9008950E94BA1C8823D1F2F82EEFCFD3
:10375000F60181916F018093F1002197FFEFAF1A7D
:10376000BF0ACECFFC01CB0120911202309113028F
:103770002617370790F0009729F42091E8002E775C
:103780002093E80040E0009751F4411108C0809177
:10379000E80082FF31C080E00895C901F3CF209195
:1037A0000B022223A9F12530A9F12091E80023FD85
:1037B0002DC02091E80022FDEACF2091E80020FFF3
:1037C000E2CF3091F3002091F200009719F02830F9
:1037D000310558F041E02830310509F040E02091F2
:1037E000E8002E772093E800CECF41914093F1007E
:1037F00001972F5F3F4FE9CF80910B02882341F063
:10380000853041F08091E80083FFC1CF81E00895C9
:1038100082E0089583E00895FC01CB01209112021B
:10382000309113022617370790F0009729F4209162
:10383000E8002E772093E80040E0009751F4411112
:1038400008C08091E80082FF32C080E00895C9017D
:10385000F3CF20910B022223B1F12530B1F1209159
:10386000E80023FD2EC02091E80022FDEACF209140
:10387000E80020FFE2CF3091F3002091F2000097A2
:1038800019F02830310558F041E02830310509F0B1
:1038900040E02091E8002E772093E800CECF4491BD
:1038A0004093F100319601972F5F3F4FE8CF809111
:1038B0000B02882341F0853041F08091E80083FFBE
:1038C000C0CF81E0089582E0089583E00895982FA5
:1038D000973028F08F708093E90081E008959093ED
:1038E000E900242F762F50E0981731F07091EC000A
:1038F0002091ED005091F00021FD02C09F5FE8CFC4
:103900003091EB003E7F3093EB003091ED003D7F36
:103910003093ED003091EB0031603093EB00709309
:10392000EC002093ED005093F0002091EE0027FD75
:10393000E5CF80E0089580910C0287FF13C080914D
:10394000E80082FF06C08091E8008B778093E80052
:1039500004C080910B028111F2CF089580910B0277
:103960008823D9F38091E80080FFF8CF8091E800A8
:103970008E77ECCF2091E4003091E50095E6A90127
:103980002091EC00822F817020FF06C08091E8001A
:1039900080FF06C080E008952091E80022FD1AC053
:1039A00080910B02882389F0853089F08091EB00AB
:1039B00085FD0FC02091E4003091E50042175307C8
:1039C000F9F29150E1F684E0089582E0089583E0F1
:1039D000089581E008950E94591D0E94611DE0EE46
:1039E000F0E0808181608083E8EDF0E080818F7776
:1039F000808319BCA7EDB0E08C918E7F8C93808181
:103A00008F7E808310920A0208950F931F93CF93A5
:103A1000DF930E94591D0E94611DC8EDD0E088818E
:103A20008F77888388818068888388818F7D888369
:103A300019BC10920B021092070210920902109208
:103A4000080200EE10E0F80180818B7F808388817E
:103A50008160888342E060E080E00E94671CE1EEC4
:103A6000F0E080818E7F8083E2EEF0E080818160F3
:103A70008083808188608083F80180818E7F80834D
:103A8000888180618883DF91CF911F910F91089584
:103A9000E8EDF0E080818F7E8083E7EDF0E08081CB
:103AA0008160808384E082BF81E080930A020C946D
:103AB000051DE8EDF0E080818E7F80831092E200AA
:103AC00008951092DA001092E10008951F920F926B
:103AD0000FB60F9211242F933F934F935F936F93E1
:103AE0007F938F939F93AF93BF93EF93FF938091B7
:103AF000E10082FF0BC08091E20082FF07C080914D
:103B0000E1008B7F8093E1000E94C71F8091DA0063
:103B100080FF19C08091D80080FF15C08091DA0025
:103B20008E7F8093DA008091D90080FF94C080E17D
:103B300089BD82E189BD09B400FEFDCF81E080939B
:103B40000B020E94E6198091E10080FF19C080916C
:103B5000E20080FF15C08091E2008E7F8093E2003A
:103B60008091E20080618093E2008091D8008062C1
:103B70008093D80019BC85E080930B020E94F8194D
:103B80008091E10084FF29C08091E20084FF25C07C
:103B900080E189BD82E189BD09B400FEFDCF80913D
:103BA000D8008F7D8093D8008091E1008F7E809334
:103BB000E1008091E2008F7E8093E2008091E2003C
:103BC00081608093E20080910702882309F449C054
:103BD00084E080930B020E94F9198091E10083FF39
:103BE00029C08091E20083FF25C08091E100877F9A
:103BF0008093E10082E080930B0210920702809193
:103C0000E1008E7F8093E1008091E2008E7F8093BF
:103C1000E2008091E20080618093E20042E060E097
:103C200080E00E94671C8091F00088608093F00023
:103C30000E94F719FF91EF91BF91AF919F918F91E2
:103C40007F916F915F914F913F912F910F900FBE98
:103C50000F901F90189519BC10920B020E94F41936
:103C600072CF8091E30087FD02C081E0B2CF83E094
:103C7000B0CF1F920F920FB60F9211242F933F9344
:103C80004F935F936F937F938F939F93AF93BF9364
:103C9000CF93DF93EF93FF93D091E900DF70809192
:103CA000EC00C82FC17080FDC0E81092E90080913F
:103CB000F000877F8093F00078940E947D1E109220
:103CC000E9008091F00088608093F000CD2BCF70E8
:103CD000C093E900FF91EF91DF91CF91BF91AF9138
:103CE0009F918F917F916F915F914F913F912F9114
:103CF0000F900FBE0F901F9018951F93CF93DF93D7
:103D0000CDB7DEB7AA970FB6F894DEBF0FBECDBF12
:103D10008CE092E0FC0101962091F100208322E0EA
:103D200084319207B9F70E940F1A8091E80083FF4F
:103D300016C180910C0290910D029A3008F00FC1CB
:103D4000E92FF0E0E456FE4D0C942821803881F0F4
:103D5000823809F004C1809110028F708093E900CD
:103D60008091EB0085FB882780F91092E90006C05E
:103D70008091080290910902911182609091E8006F
:103D8000977F9093E8008093F1001092F10080916A
:103D9000E8008E77E0C0882309F4CEC0823009F0B5
:103DA000DEC080910E028111D1C0809110028F700F
:103DB00009F4D5C08093E9002091EB0020FFC6C034
:103DC000933031F48091EB0080628093EB00BEC0B1
:103DD0009091EB0090619093EB0021E030E001C006
:103DE000220F8A95EAF72093EA001092EA00809168
:103DF000EB008860EACF8111B2C010910E021F77EC
:103E00008091E3008078812B8093E3008091E8002B
:103E1000877F8093E8000E949B1C8091E80080FFD0
:103E2000FCCF8091E30080688093E30082E0111171
:103E300083E080930B0293C08058823008F08FC0DB
:103E400080910E0290910F028C3D23E09207A1F524
:103E500083E08A838AE289834FB7F894DE01139660
:103E600020E03EE051E2E32FF0E050935700E49170
:103E700020FF03C0E295EF703F5FEF708E2F90E060
:103E8000EA30C0F0C7968D939D932F5F243159F788
:103E90004FBF8091E800877F8093E8006AE270E07E
:103EA000CE0101960E94B21B8091E8008B7780932F
:103EB000E80055C0C096E7CFAE014F5F5F4F6091FD
:103EC00010020E94F71ABC01892B09F448C08091A6
:103ED000E800877F8093E80089819A810E940C1C0A
:103EE000E3CF8038E1F58091E800877F8093E80098
:103EF000809107028093F1004ACF811130C09091E8
:103F00000E02923060F58091E800877F8093E80090
:103F1000909307020E949B1C80910702882311F056
:103F200084E005C08091E30087FDFACF81E08093B3
:103F30000B020E94FB1913C080910E02813079F4AC
:103F400081E0933009F080E0809309021092E9004B
:103F50008091E800877F8093E8000E949B1C8091FD
:103F6000E80083FF0AC08091E800877F8093E80023
:103F70008091EB0080628093EB00AA960FB6F894D4
:103F8000DEBF0FBECDBFDF91CF911F910895089581
:103F9000CF9380910B028823A1F0C091E900CF70EC
:103FA0009091EC00892F817090FD80E8C82B1092D1
:103FB000E9008091E80083FD0E947D1ECF70C093D0
:103FC000E900CF9108950E94EA1F6894B1110C9402
:103FD000792008950E945E2088F09F5798F0B92FAD
:103FE0009927B751B0F0E1F0660F771F881F991F2E
:103FF0001AF0BA95C9F714C0B13091F00E94782038
:10400000B1E008950C947820672F782F8827B85F47
:1040100039F0B93FCCF3869577956795B395D9F785
:104020003EF490958095709561957F4F8F4F9F4F8F
:104030000895E89409C097FB3EF49095809570959B
:1040400061957F4F8F4F9F4F9923A9F0F92F96E9E4
:10405000BB279395F695879577956795B795F11159
:10406000F8CFFAF4BB0F11F460FF1BC06F5F7F4FF6
:104070008F4F9F4F16C0882311F096E911C0772308
:1040800021F09EE8872F762F05C0662371F096E811
:10409000862F70E060E02AF09A95660F771F881FE0
:1040A000DAF7880F9695879597F9089557FD9058F8
:1040B000440F551F59F05F3F71F04795880F97FBEC
:1040C000991F61F09F3F79F08795089512161306A6
:1040D0001406551FF2CF4695F1DF08C016161706D5
:1040E0001806991FF1CF869571056105089408950A
:1040F000E894BB2766277727CB0197F908950E949C
:1041000092200C9403210E94F52038F00E94FC209C
:1041100020F0952311F00C94EC200C94F220112443
:104120000C9479200E94562070F3959FC1F3950F4F
:1041300050E0551F629FF001729FBB27F00DB11D2B
:10414000639FAA27F00DB11DAA1F649F6627B00DBB
:10415000A11D661F829F2227B00DA11D621F739FA4
:10416000B00DA11D621F839FA00D611D221F749FB2
:104170003327A00D611D231F849F600D211D822FF9
:10418000762F6A2F11249F5750409AF0F1F0882320
:104190004AF0EE0FFF1FBB1F661F771F881F91504D
:1041A0005040A9F79E3F510580F00C94EC200C94F0
:1041B00079205F3FE4F3983ED4F386957795679531
:1041C000B795F795E7959F5FC1F7FE2B880F911D77
:1041D0009695879597F9089597F99F6780E870E01D
:1041E00060E008959FEF80EC089500240A9416166D
:1041F000170618060906089500240A9412161306D5
:10420000140605060895092E0394000C11F4882362
:1042100052F0BB0F40F4BF2B11F460FF04C06F5F7E
:104220007F4F8F4F9F4F089597FB072E16F40094F2
:1042300007D077FD09D00E942E2107FC05D03EF45F
:10424000909581959F4F0895709561957F4F089542
:10425000EE0FFF1F0590F491E02D0994AA1BBB1BE4
:1042600051E107C0AA1FBB1FA617B70710F0A61B76
:10427000B70B881F991F5A95A9F780959095BC0197
:10428000CD010895F999FECF92BD81BDF89A992785
:1042900080B50895A8E1B0E042E050E00C946A21B6
:1042A000262FF999FECF92BD81BDF89A019700B4EF
:1042B000021639F01FBA20BD0FB6F894FA9AF99A8F
:1042C0000FBE08950196272F0E9451210C94502172
:1042D000DC01CB01FC01F999FECF06C0F2BDE1BDC6
:1042E000F89A319600B40D9241505040B8F70895B5
:1042F000F894FFCFEE03FA03FE03020406040A0457
:104300000E04120416041A041E04220426042A04AD
:104310002E04320436043A04780A780AD00AD00A05
:10432000140B300BA80AA80A3B0BA80A030C030CB9
:104330006E0CA80AA80A770CA61ECB1EAF1FCB1EB8
:0C434000AF1FFB1E1C1FAF1F711F7D1F55
:10434C00B1012808140A321E03199319701939196E
:10435C0006190190F636F5F4C63491979466404DE3
:10436C00363997054A051405DB046E048704A0044E
:02437C00B90482
:00000001FF
